{
  "contractName": "AssetToken",
  "abi": [
    {
      "inputs": [],
      "stateMutability": "nonpayable",
      "type": "constructor"
    },
    {
      "anonymous": false,
      "inputs": [
        {
          "indexed": true,
          "internalType": "address",
          "name": "owner",
          "type": "address"
        },
        {
          "indexed": true,
          "internalType": "address",
          "name": "approved",
          "type": "address"
        },
        {
          "indexed": true,
          "internalType": "uint256",
          "name": "tokenId",
          "type": "uint256"
        }
      ],
      "name": "Approval",
      "type": "event"
    },
    {
      "anonymous": false,
      "inputs": [
        {
          "indexed": true,
          "internalType": "address",
          "name": "owner",
          "type": "address"
        },
        {
          "indexed": true,
          "internalType": "address",
          "name": "operator",
          "type": "address"
        },
        {
          "indexed": false,
          "internalType": "bool",
          "name": "approved",
          "type": "bool"
        }
      ],
      "name": "ApprovalForAll",
      "type": "event"
    },
    {
      "anonymous": false,
      "inputs": [
        {
          "indexed": false,
          "internalType": "uint256",
          "name": "tokenId",
          "type": "uint256"
        }
      ],
      "name": "AssetRegistered",
      "type": "event"
    },
    {
      "anonymous": false,
      "inputs": [
        {
          "indexed": true,
          "internalType": "address",
          "name": "previousOwner",
          "type": "address"
        },
        {
          "indexed": true,
          "internalType": "address",
          "name": "newOwner",
          "type": "address"
        }
      ],
      "name": "OwnershipTransferred",
      "type": "event"
    },
    {
      "anonymous": false,
      "inputs": [
        {
          "indexed": true,
          "internalType": "address",
          "name": "from",
          "type": "address"
        },
        {
          "indexed": true,
          "internalType": "address",
          "name": "to",
          "type": "address"
        },
        {
          "indexed": true,
          "internalType": "uint256",
          "name": "tokenId",
          "type": "uint256"
        }
      ],
      "name": "Transfer",
      "type": "event"
    },
    {
      "inputs": [
        {
          "internalType": "address",
          "name": "to",
          "type": "address"
        },
        {
          "internalType": "uint256",
          "name": "tokenId",
          "type": "uint256"
        }
      ],
      "name": "approve",
      "outputs": [],
      "stateMutability": "nonpayable",
      "type": "function"
    },
    {
      "inputs": [
        {
          "internalType": "address",
          "name": "owner",
          "type": "address"
        }
      ],
      "name": "balanceOf",
      "outputs": [
        {
          "internalType": "uint256",
          "name": "",
          "type": "uint256"
        }
      ],
      "stateMutability": "view",
      "type": "function",
      "constant": true
    },
    {
      "inputs": [
        {
          "internalType": "uint256",
          "name": "tokenId",
          "type": "uint256"
        }
      ],
      "name": "getApproved",
      "outputs": [
        {
          "internalType": "address",
          "name": "",
          "type": "address"
        }
      ],
      "stateMutability": "view",
      "type": "function",
      "constant": true
    },
    {
      "inputs": [
        {
          "internalType": "address",
          "name": "owner",
          "type": "address"
        },
        {
          "internalType": "address",
          "name": "operator",
          "type": "address"
        }
      ],
      "name": "isApprovedForAll",
      "outputs": [
        {
          "internalType": "bool",
          "name": "",
          "type": "bool"
        }
      ],
      "stateMutability": "view",
      "type": "function",
      "constant": true
    },
    {
      "inputs": [],
      "name": "name",
      "outputs": [
        {
          "internalType": "string",
          "name": "",
          "type": "string"
        }
      ],
      "stateMutability": "view",
      "type": "function",
      "constant": true
    },
    {
      "inputs": [],
      "name": "owner",
      "outputs": [
        {
          "internalType": "address",
          "name": "",
          "type": "address"
        }
      ],
      "stateMutability": "view",
      "type": "function",
      "constant": true
    },
    {
      "inputs": [
        {
          "internalType": "uint256",
          "name": "tokenId",
          "type": "uint256"
        }
      ],
      "name": "ownerOf",
      "outputs": [
        {
          "internalType": "address",
          "name": "",
          "type": "address"
        }
      ],
      "stateMutability": "view",
      "type": "function",
      "constant": true
    },
    {
      "inputs": [
        {
          "internalType": "uint256",
          "name": "",
          "type": "uint256"
        }
      ],
      "name": "registeredAssets",
      "outputs": [
        {
          "internalType": "uint256",
          "name": "",
          "type": "uint256"
        }
      ],
      "stateMutability": "view",
      "type": "function",
      "constant": true
    },
    {
      "inputs": [],
      "name": "renounceOwnership",
      "outputs": [],
      "stateMutability": "nonpayable",
      "type": "function"
    },
    {
      "inputs": [
        {
          "internalType": "address",
          "name": "from",
          "type": "address"
        },
        {
          "internalType": "address",
          "name": "to",
          "type": "address"
        },
        {
          "internalType": "uint256",
          "name": "tokenId",
          "type": "uint256"
        }
      ],
      "name": "safeTransferFrom",
      "outputs": [],
      "stateMutability": "nonpayable",
      "type": "function"
    },
    {
      "inputs": [
        {
          "internalType": "address",
          "name": "from",
          "type": "address"
        },
        {
          "internalType": "address",
          "name": "to",
          "type": "address"
        },
        {
          "internalType": "uint256",
          "name": "tokenId",
          "type": "uint256"
        },
        {
          "internalType": "bytes",
          "name": "data",
          "type": "bytes"
        }
      ],
      "name": "safeTransferFrom",
      "outputs": [],
      "stateMutability": "nonpayable",
      "type": "function"
    },
    {
      "inputs": [
        {
          "internalType": "address",
          "name": "operator",
          "type": "address"
        },
        {
          "internalType": "bool",
          "name": "approved",
          "type": "bool"
        }
      ],
      "name": "setApprovalForAll",
      "outputs": [],
      "stateMutability": "nonpayable",
      "type": "function"
    },
    {
      "inputs": [
        {
          "internalType": "bytes4",
          "name": "interfaceId",
          "type": "bytes4"
        }
      ],
      "name": "supportsInterface",
      "outputs": [
        {
          "internalType": "bool",
          "name": "",
          "type": "bool"
        }
      ],
      "stateMutability": "view",
      "type": "function",
      "constant": true
    },
    {
      "inputs": [],
      "name": "symbol",
      "outputs": [
        {
          "internalType": "string",
          "name": "",
          "type": "string"
        }
      ],
      "stateMutability": "view",
      "type": "function",
      "constant": true
    },
    {
      "inputs": [
        {
          "internalType": "uint256",
          "name": "index",
          "type": "uint256"
        }
      ],
      "name": "tokenByIndex",
      "outputs": [
        {
          "internalType": "uint256",
          "name": "",
          "type": "uint256"
        }
      ],
      "stateMutability": "view",
      "type": "function",
      "constant": true
    },
    {
      "inputs": [
        {
          "internalType": "address",
          "name": "owner",
          "type": "address"
        },
        {
          "internalType": "uint256",
          "name": "index",
          "type": "uint256"
        }
      ],
      "name": "tokenOfOwnerByIndex",
      "outputs": [
        {
          "internalType": "uint256",
          "name": "",
          "type": "uint256"
        }
      ],
      "stateMutability": "view",
      "type": "function",
      "constant": true
    },
    {
      "inputs": [
        {
          "internalType": "uint256",
          "name": "tokenId",
          "type": "uint256"
        }
      ],
      "name": "tokenURI",
      "outputs": [
        {
          "internalType": "string",
          "name": "",
          "type": "string"
        }
      ],
      "stateMutability": "view",
      "type": "function",
      "constant": true
    },
    {
      "inputs": [],
      "name": "totalSupply",
      "outputs": [
        {
          "internalType": "uint256",
          "name": "",
          "type": "uint256"
        }
      ],
      "stateMutability": "view",
      "type": "function",
      "constant": true
    },
    {
      "inputs": [
        {
          "internalType": "address",
          "name": "from",
          "type": "address"
        },
        {
          "internalType": "address",
          "name": "to",
          "type": "address"
        },
        {
          "internalType": "uint256",
          "name": "tokenId",
          "type": "uint256"
        }
      ],
      "name": "transferFrom",
      "outputs": [],
      "stateMutability": "nonpayable",
      "type": "function"
    },
    {
      "inputs": [
        {
          "internalType": "address",
          "name": "newOwner",
          "type": "address"
        }
      ],
      "name": "transferOwnership",
      "outputs": [],
      "stateMutability": "nonpayable",
      "type": "function"
    },
    {
      "stateMutability": "payable",
      "type": "receive",
      "payable": true
    },
    {
      "inputs": [
        {
          "internalType": "uint256",
          "name": "assetID",
          "type": "uint256"
        },
        {
          "internalType": "uint256",
          "name": "salePrice",
          "type": "uint256"
        },
        {
          "internalType": "string",
          "name": "_uri",
          "type": "string"
        }
      ],
      "name": "registerAsset",
      "outputs": [
        {
          "internalType": "uint256",
          "name": "newTokenID",
          "type": "uint256"
        }
      ],
      "stateMutability": "nonpayable",
      "type": "function"
    },
    {
      "inputs": [],
      "name": "getAllRegisteredAsset",
      "outputs": [
        {
          "internalType": "uint256[]",
          "name": "r",
          "type": "uint256[]"
        }
      ],
      "stateMutability": "view",
      "type": "function",
      "constant": true
    },
    {
      "inputs": [
        {
          "internalType": "uint256",
          "name": "assetID",
          "type": "uint256"
        }
      ],
      "name": "getAssetByID",
      "outputs": [
        {
          "internalType": "uint256",
          "name": "",
          "type": "uint256"
        },
        {
          "internalType": "bool",
          "name": "",
          "type": "bool"
        },
        {
          "internalType": "uint256",
          "name": "",
          "type": "uint256"
        },
        {
          "internalType": "address",
          "name": "",
          "type": "address"
        }
      ],
      "stateMutability": "view",
      "type": "function",
      "constant": true
    },
    {
      "inputs": [],
      "name": "getAssetOnSaleCount",
      "outputs": [
        {
          "internalType": "uint256",
          "name": "",
          "type": "uint256"
        }
      ],
      "stateMutability": "view",
      "type": "function",
      "constant": true
    },
    {
      "inputs": [
        {
          "internalType": "address",
          "name": "tokenOwnerAddress",
          "type": "address"
        }
      ],
      "name": "getAssetsOwnedByAccount",
      "outputs": [
        {
          "internalType": "uint256[]",
          "name": "",
          "type": "uint256[]"
        }
      ],
      "stateMutability": "view",
      "type": "function",
      "constant": true
    },
    {
      "inputs": [],
      "name": "getAllAssetOnSale",
      "outputs": [
        {
          "internalType": "uint256[]",
          "name": "",
          "type": "uint256[]"
        },
        {
          "internalType": "uint256[]",
          "name": "",
          "type": "uint256[]"
        },
        {
          "internalType": "address[]",
          "name": "",
          "type": "address[]"
        }
      ],
      "stateMutability": "view",
      "type": "function",
      "constant": true
    },
    {
      "inputs": [
        {
          "internalType": "address",
          "name": "escrowAccount",
          "type": "address"
        }
      ],
      "name": "getAccountEscrowMoney",
      "outputs": [
        {
          "internalType": "uint256",
          "name": "moneyInEscrow",
          "type": "uint256"
        }
      ],
      "stateMutability": "view",
      "type": "function",
      "constant": true
    },
    {
      "inputs": [
        {
          "internalType": "uint256",
          "name": "salePrice",
          "type": "uint256"
        },
        {
          "internalType": "uint256",
          "name": "assetID",
          "type": "uint256"
        }
      ],
      "name": "putAssetOnMarket",
      "outputs": [],
      "stateMutability": "nonpayable",
      "type": "function"
    },
    {
      "inputs": [
        {
          "internalType": "address",
          "name": "_to",
          "type": "address"
        },
        {
          "internalType": "uint256",
          "name": "assetID",
          "type": "uint256"
        },
        {
          "internalType": "bool",
          "name": "withEscrow",
          "type": "bool"
        }
      ],
      "name": "transferAsset",
      "outputs": [],
      "stateMutability": "nonpayable",
      "type": "function"
    }
  ],
  "bytecode": "0x60806040523480156200001157600080fd5b506040518060400160405280600a81526020017f5368617265546f57696e000000000000000000000000000000000000000000008152506040518060400160405280600381526020017f535457000000000000000000000000000000000000000000000000000000000081525081600090816200008f919062000412565b508060019081620000a1919062000412565b505050620000c4620000b8620000ca60201b60201c565b620000d260201b60201c565b620004f9565b600033905090565b6000600a60009054906101000a900473ffffffffffffffffffffffffffffffffffffffff16905081600a60006101000a81548173ffffffffffffffffffffffffffffffffffffffff021916908373ffffffffffffffffffffffffffffffffffffffff1602179055508173ffffffffffffffffffffffffffffffffffffffff168173ffffffffffffffffffffffffffffffffffffffff167f8be0079c531659141344cd1fd0a4f28419497f9722a3daafe3b4186f6b6457e060405160405180910390a35050565b600081519050919050565b7f4e487b7100000000000000000000000000000000000000000000000000000000600052604160045260246000fd5b7f4e487b7100000000000000000000000000000000000000000000000000000000600052602260045260246000fd5b600060028204905060018216806200021a57607f821691505b60208210810362000230576200022f620001d2565b5b50919050565b60008190508160005260206000209050919050565b60006020601f8301049050919050565b600082821b905092915050565b6000600883026200029a7fffffffffffffffffffffffffffffffffffffffffffffffffffffffffffffffff826200025b565b620002a686836200025b565b95508019841693508086168417925050509392505050565b6000819050919050565b6000819050919050565b6000620002f3620002ed620002e784620002be565b620002c8565b620002be565b9050919050565b6000819050919050565b6200030f83620002d2565b620003276200031e82620002fa565b84845462000268565b825550505050565b600090565b6200033e6200032f565b6200034b81848462000304565b505050565b5b8181101562000373576200036760008262000334565b60018101905062000351565b5050565b601f821115620003c2576200038c8162000236565b62000397846200024b565b81016020851015620003a7578190505b620003bf620003b6856200024b565b83018262000350565b50505b505050565b600082821c905092915050565b6000620003e760001984600802620003c7565b1980831691505092915050565b6000620004028383620003d4565b9150826002028217905092915050565b6200041d8262000198565b67ffffffffffffffff811115620004395762000438620001a3565b5b62000445825462000201565b6200045282828562000377565b600060209050601f8311600181146200048a576000841562000475578287015190505b620004818582620003f4565b865550620004f1565b601f1984166200049a8662000236565b60005b82811015620004c4578489015182556001820191506020850194506020810190506200049d565b86831015620004e45784890151620004e0601f891682620003d4565b8355505b6001600288020188555050505b505050505050565b61494280620005096000396000f3fe6080604052600436106101c65760003560e01c806370a08231116100f7578063a22cb46511610095578063d673383811610064578063d673383814610759578063e985e9c514610784578063f2fde38b146107c1578063fbd5a331146107ea57610266565b8063a22cb465146106a1578063b88d4fde146106ca578063c87b56dd146106f3578063cf80a3e91461073057610266565b80637cda9c9a116100d15780637cda9c9a146105e15780638da5cb5b1461060e57806395d89b4114610639578063a083bd3c1461066457610266565b806370a082311461054d578063715018a61461058a5780637bb39bad146105a157610266565b80632d2fd0831161016457806342842e0e1161013e57806342842e0e1461046d5780634f6ccce714610496578063552f5e12146104d35780636352211e1461051057610266565b80632d2fd083146103b65780632f745c59146103f35780633844d2801461043057610266565b8063095ea7b3116101a0578063095ea7b314610310578063169c68d91461033957806318160ddd1461036257806323b872dd1461038d57610266565b806301ffc9a71461026b57806306fdde03146102a8578063081812fc146102d357610266565b3661026657600034905061022281600d60003373ffffffffffffffffffffffffffffffffffffffff1673ffffffffffffffffffffffffffffffffffffffff1681526020019081526020016000205461081590919063ffffffff16565b600d60003373ffffffffffffffffffffffffffffffffffffffff1673ffffffffffffffffffffffffffffffffffffffff168152602001908152602001600020819055005b600080fd5b34801561027757600080fd5b50610292600480360381019061028d9190612feb565b61082b565b60405161029f9190613033565b60405180910390f35b3480156102b457600080fd5b506102bd6108a5565b6040516102ca91906130de565b60405180910390f35b3480156102df57600080fd5b506102fa60048036038101906102f59190613136565b610937565b60405161030791906131a4565b60405180910390f35b34801561031c57600080fd5b50610337600480360381019061033291906131eb565b61097d565b005b34801561034557600080fd5b50610360600480360381019061035b9190613257565b610a94565b005b34801561036e57600080fd5b50610377610d7b565b60405161038491906132b9565b60405180910390f35b34801561039957600080fd5b506103b460048036038101906103af91906132d4565b610d88565b005b3480156103c257600080fd5b506103dd60048036038101906103d8919061338c565b610de8565b6040516103ea91906132b9565b60405180910390f35b3480156103ff57600080fd5b5061041a600480360381019061041591906131eb565b610f15565b60405161042791906132b9565b60405180910390f35b34801561043c57600080fd5b5061045760048036038101906104529190613400565b610fba565b60405161046491906132b9565b60405180910390f35b34801561047957600080fd5b50610494600480360381019061048f91906132d4565b611016565b005b3480156104a257600080fd5b506104bd60048036038101906104b89190613136565b611036565b6040516104ca91906132b9565b60405180910390f35b3480156104df57600080fd5b506104fa60048036038101906104f59190613400565b6110a7565b60405161050791906134eb565b60405180910390f35b34801561051c57600080fd5b5061053760048036038101906105329190613136565b61116e565b60405161054491906131a4565b60405180910390f35b34801561055957600080fd5b50610574600480360381019061056f9190613400565b6111f4565b60405161058191906132b9565b60405180910390f35b34801561059657600080fd5b5061059f6112ab565b005b3480156105ad57600080fd5b506105c860048036038101906105c39190613136565b6112bf565b6040516105d8949392919061350d565b60405180910390f35b3480156105ed57600080fd5b506105f6611345565b60405161060593929190613610565b60405180910390f35b34801561061a57600080fd5b5061062361165e565b60405161063091906131a4565b60405180910390f35b34801561064557600080fd5b5061064e611688565b60405161065b91906130de565b60405180910390f35b34801561067057600080fd5b5061068b60048036038101906106869190613136565b61171a565b60405161069891906132b9565b60405180910390f35b3480156106ad57600080fd5b506106c860048036038101906106c3919061365c565b61173e565b005b3480156106d657600080fd5b506106f160048036038101906106ec91906137cc565b611754565b005b3480156106ff57600080fd5b5061071a60048036038101906107159190613136565b6117b6565b60405161072791906130de565b60405180910390f35b34801561073c57600080fd5b506107576004803603810190610752919061384f565b61181e565b005b34801561076557600080fd5b5061076e61186c565b60405161077b91906134eb565b60405180910390f35b34801561079057600080fd5b506107ab60048036038101906107a6919061388f565b6118c4565b6040516107b89190613033565b60405180910390f35b3480156107cd57600080fd5b506107e860048036038101906107e39190613400565b611958565b005b3480156107f657600080fd5b506107ff6119db565b60405161080c91906132b9565b60405180910390f35b6000818361082391906138fe565b905092915050565b60007f780e9d63000000000000000000000000000000000000000000000000000000007bffffffffffffffffffffffffffffffffffffffffffffffffffffffff1916827bffffffffffffffffffffffffffffffffffffffffffffffffffffffff1916148061089e575061089d82611a65565b5b9050919050565b6060600080546108b490613961565b80601f01602080910402602001604051908101604052809291908181526020018280546108e090613961565b801561092d5780601f106109025761010080835404028352916020019161092d565b820191906000526020600020905b81548152906001019060200180831161091057829003601f168201915b5050505050905090565b600061094282611b47565b6004600083815260200190815260200160002060009054906101000a900473ffffffffffffffffffffffffffffffffffffffff169050919050565b60006109888261116e565b90508073ffffffffffffffffffffffffffffffffffffffff168373ffffffffffffffffffffffffffffffffffffffff16036109f8576040517f08c379a00000000000000000000000000000000000000000000000000000000081526004016109ef90613a04565b60405180910390fd5b8073ffffffffffffffffffffffffffffffffffffffff16610a17611b92565b73ffffffffffffffffffffffffffffffffffffffff161480610a465750610a4581610a40611b92565b6118c4565b5b610a85576040517f08c379a0000000000000000000000000000000000000000000000000000000008152600401610a7c90613a96565b60405180910390fd5b610a8f8383611b9a565b505050565b6000600e60008481526020019081526020016000206002015490506000600e60008581526020019081526020016000206000015490506000610ad58361116e565b90508073ffffffffffffffffffffffffffffffffffffffff168673ffffffffffffffffffffffffffffffffffffffff1603610b45576040517f08c379a0000000000000000000000000000000000000000000000000000000008152600401610b3c90613b02565b60405180910390fd5b600d60008773ffffffffffffffffffffffffffffffffffffffff1673ffffffffffffffffffffffffffffffffffffffff16815260200190815260200160002054821115610bc7576040517f08c379a0000000000000000000000000000000000000000000000000000000008152600401610bbe90613b94565b60405180910390fd5b60011515600e600087815260200190815260200160002060010160009054906101000a900460ff16151514610c31576040517f08c379a0000000000000000000000000000000000000000000000000000000008152600401610c2890613c26565b60405180910390fd5b610c3c818785611016565b6001151584151503610d44578073ffffffffffffffffffffffffffffffffffffffff166108fc670de0b6b3a764000084610c769190613c46565b9081150290604051600060405180830381858888f19350505050158015610ca1573d6000803e3d6000fd5b50670de0b6b3a764000082610cb69190613c46565b600d60008873ffffffffffffffffffffffffffffffffffffffff1673ffffffffffffffffffffffffffffffffffffffff16815260200190815260200160002054610d009190613c88565b600d60008873ffffffffffffffffffffffffffffffffffffffff1673ffffffffffffffffffffffffffffffffffffffff168152602001908152602001600020819055505b6000600e600087815260200190815260200160002060010160006101000a81548160ff021916908315150217905550505050505050565b6000600880549050905090565b610d99610d93611b92565b82611c53565b610dd8576040517f08c379a0000000000000000000000000000000000000000000000000000000008152600401610dcf90613d2e565b60405180910390fd5b610de3838383611ce8565b505050565b6000610df4600c611fe1565b610dfe600c611ff7565b9050610e0a3382612005565b8282600b9182610e1b929190613f05565b50610e24612f5c565b8481600001818152505060018160200190151590811515815250508181604001818152505080600e60008881526020019081526020016000206000820151816000015560208201518160010160006101000a81548160ff02191690831515021790555060408201518160020155905050600f8690806001815401808255809150506001900390600052602060002001600090919091909150558560106000848152602001908152602001600020819055507fcc7b4929606ce963ba54b6a998f106f7748e78c03dc7f08fd77aeb28230eb2d382604051610f0491906132b9565b60405180910390a150949350505050565b6000610f20836111f4565b8210610f61576040517f08c379a0000000000000000000000000000000000000000000000000000000008152600401610f5890614047565b60405180910390fd5b600660008473ffffffffffffffffffffffffffffffffffffffff1673ffffffffffffffffffffffffffffffffffffffff168152602001908152602001600020600083815260200190815260200160002054905092915050565b6000670de0b6b3a7640000600d60008473ffffffffffffffffffffffffffffffffffffffff1673ffffffffffffffffffffffffffffffffffffffff1681526020019081526020016000205461100f9190614096565b9050919050565b61103183838360405180602001604052806000815250611754565b505050565b6000611040610d7b565b8210611081576040517f08c379a000000000000000000000000000000000000000000000000000000000815260040161107890614139565b60405180910390fd5b6008828154811061109557611094614159565b5b90600052602060002001549050919050565b606060006110b4836111f4565b905060008167ffffffffffffffff8111156110d2576110d16136a1565b5b6040519080825280602002602001820160405280156111005781602001602082028036833780820191505090505b50905060005b8281101561116357600061111a8683610f15565b9050601060008281526020019081526020016000205483838151811061114357611142614159565b5b60200260200101818152505050808061115b90614188565b915050611106565b508092505050919050565b60008061117a83612023565b9050600073ffffffffffffffffffffffffffffffffffffffff168173ffffffffffffffffffffffffffffffffffffffff16036111eb576040517f08c379a00000000000000000000000000000000000000000000000000000000081526004016111e29061421c565b60405180910390fd5b80915050919050565b60008073ffffffffffffffffffffffffffffffffffffffff168273ffffffffffffffffffffffffffffffffffffffff1603611264576040517f08c379a000000000000000000000000000000000000000000000000000000000815260040161125b906142ae565b60405180910390fd5b600360008373ffffffffffffffffffffffffffffffffffffffff1673ffffffffffffffffffffffffffffffffffffffff168152602001908152602001600020549050919050565b6112b3612060565b6112bd60006120de565b565b600080600080600e600086815260200190815260200160002060000154600e600087815260200190815260200160002060010160009054906101000a900460ff16600e600088815260200190815260200160002060020154611336600e60008a81526020019081526020016000206002015461116e565b93509350935093509193509193565b606080606060006113546119db565b905060008167ffffffffffffffff811115611372576113716136a1565b5b6040519080825280602002602001820160405280156113a05781602001602082028036833780820191505090505b50905060008267ffffffffffffffff8111156113bf576113be6136a1565b5b6040519080825280602002602001820160405280156113ed5781602001602082028036833780820191505090505b50905060008367ffffffffffffffff81111561140c5761140b6136a1565b5b60405190808252806020026020018201604052801561143a5781602001602082028036833780820191505090505b5090506000805b600f8054905081101561164a5760011515600e6000600f848154811061146a57611469614159565b5b9060005260206000200154815260200190815260200160002060010160009054906101000a900460ff1615150361163757600f81815481106114af576114ae614159565b5b90600052602060002001548583815181106114cd576114cc614159565b5b602002602001018181525050600e6000600f83815481106114f1576114f0614159565b5b906000526020600020015481526020019081526020016000206000015484838151811061152157611520614159565b5b6020026020010181815250503073ffffffffffffffffffffffffffffffffffffffff16636352211e600e6000600f858154811061156157611560614159565b5b90600052602060002001548152602001908152602001600020600201546040518263ffffffff1660e01b815260040161159a91906132b9565b602060405180830381865afa1580156115b7573d6000803e3d6000fd5b505050506040513d601f19601f820116820180604052508101906115db91906142e3565b8383815181106115ee576115ed614159565b5b602002602001019073ffffffffffffffffffffffffffffffffffffffff16908173ffffffffffffffffffffffffffffffffffffffff1681525050818061163390614188565b9250505b808061164290614188565b915050611441565b508383839750975097505050505050909192565b6000600a60009054906101000a900473ffffffffffffffffffffffffffffffffffffffff16905090565b60606001805461169790613961565b80601f01602080910402602001604051908101604052809291908181526020018280546116c390613961565b80156117105780601f106116e557610100808354040283529160200191611710565b820191906000526020600020905b8154815290600101906020018083116116f357829003601f168201915b5050505050905090565b600f818154811061172a57600080fd5b906000526020600020016000915090505481565b611750611749611b92565b83836121a4565b5050565b61176561175f611b92565b83611c53565b6117a4576040517f08c379a000000000000000000000000000000000000000000000000000000000815260040161179b90613d2e565b60405180910390fd5b6117b084848484612310565b50505050565b60606117c182611b47565b60006117cb61236c565b905060008151116117eb5760405180602001604052806000815250611816565b806117f5846123fe565b60405160200161180692919061434c565b6040516020818303038152906040525b915050919050565b81600e6000838152602001908152602001600020600001819055506001600e600083815260200190815260200160002060010160006101000a81548160ff0219169083151502179055505050565b6060600f8054806020026020016040519081016040528092919081815260200182805480156118ba57602002820191906000526020600020905b8154815260200190600101908083116118a6575b5050505050905090565b6000600560008473ffffffffffffffffffffffffffffffffffffffff1673ffffffffffffffffffffffffffffffffffffffff16815260200190815260200160002060008373ffffffffffffffffffffffffffffffffffffffff1673ffffffffffffffffffffffffffffffffffffffff16815260200190815260200160002060009054906101000a900460ff16905092915050565b611960612060565b600073ffffffffffffffffffffffffffffffffffffffff168173ffffffffffffffffffffffffffffffffffffffff16036119cf576040517f08c379a00000000000000000000000000000000000000000000000000000000081526004016119c6906143e2565b60405180910390fd5b6119d8816120de565b50565b60008060005b600f80549050811015611a5d5760011515600e6000600f8481548110611a0a57611a09614159565b5b9060005260206000200154815260200190815260200160002060010160009054906101000a900460ff16151503611a4a578180611a4690614188565b9250505b8080611a5590614188565b9150506119e1565b508091505090565b60007f80ac58cd000000000000000000000000000000000000000000000000000000007bffffffffffffffffffffffffffffffffffffffffffffffffffffffff1916827bffffffffffffffffffffffffffffffffffffffffffffffffffffffff19161480611b3057507f5b5e139f000000000000000000000000000000000000000000000000000000007bffffffffffffffffffffffffffffffffffffffffffffffffffffffff1916827bffffffffffffffffffffffffffffffffffffffffffffffffffffffff1916145b80611b405750611b3f826124cc565b5b9050919050565b611b5081612536565b611b8f576040517f08c379a0000000000000000000000000000000000000000000000000000000008152600401611b869061421c565b60405180910390fd5b50565b600033905090565b816004600083815260200190815260200160002060006101000a81548173ffffffffffffffffffffffffffffffffffffffff021916908373ffffffffffffffffffffffffffffffffffffffff160217905550808273ffffffffffffffffffffffffffffffffffffffff16611c0d8361116e565b73ffffffffffffffffffffffffffffffffffffffff167f8c5be1e5ebec7d5bd14f71427d1e84f3dd0314c0f7b2291e5b200ac8c7c3b92560405160405180910390a45050565b600080611c5f8361116e565b90508073ffffffffffffffffffffffffffffffffffffffff168473ffffffffffffffffffffffffffffffffffffffff161480611ca15750611ca081856118c4565b5b80611cdf57508373ffffffffffffffffffffffffffffffffffffffff16611cc784610937565b73ffffffffffffffffffffffffffffffffffffffff16145b91505092915050565b8273ffffffffffffffffffffffffffffffffffffffff16611d088261116e565b73ffffffffffffffffffffffffffffffffffffffff1614611d5e576040517f08c379a0000000000000000000000000000000000000000000000000000000008152600401611d5590614474565b60405180910390fd5b600073ffffffffffffffffffffffffffffffffffffffff168273ffffffffffffffffffffffffffffffffffffffff1603611dcd576040517f08c379a0000000000000000000000000000000000000000000000000000000008152600401611dc490614506565b60405180910390fd5b611dda8383836001612577565b8273ffffffffffffffffffffffffffffffffffffffff16611dfa8261116e565b73ffffffffffffffffffffffffffffffffffffffff1614611e50576040517f08c379a0000000000000000000000000000000000000000000000000000000008152600401611e4790614474565b60405180910390fd5b6004600082815260200190815260200160002060006101000a81549073ffffffffffffffffffffffffffffffffffffffff02191690556001600360008573ffffffffffffffffffffffffffffffffffffffff1673ffffffffffffffffffffffffffffffffffffffff168152602001908152602001600020600082825403925050819055506001600360008473ffffffffffffffffffffffffffffffffffffffff1673ffffffffffffffffffffffffffffffffffffffff16815260200190815260200160002060008282540192505081905550816002600083815260200190815260200160002060006101000a81548173ffffffffffffffffffffffffffffffffffffffff021916908373ffffffffffffffffffffffffffffffffffffffff160217905550808273ffffffffffffffffffffffffffffffffffffffff168473ffffffffffffffffffffffffffffffffffffffff167fddf252ad1be2c89b69c2b068fc378daa952ba7f163c4a11628f55a4df523b3ef60405160405180910390a4611fdc83838360016126d5565b505050565b6001816000016000828254019250508190555050565b600081600001549050919050565b61201f8282604051806020016040528060008152506126db565b5050565b60006002600083815260200190815260200160002060009054906101000a900473ffffffffffffffffffffffffffffffffffffffff169050919050565b612068611b92565b73ffffffffffffffffffffffffffffffffffffffff1661208661165e565b73ffffffffffffffffffffffffffffffffffffffff16146120dc576040517f08c379a00000000000000000000000000000000000000000000000000000000081526004016120d390614572565b60405180910390fd5b565b6000600a60009054906101000a900473ffffffffffffffffffffffffffffffffffffffff16905081600a60006101000a81548173ffffffffffffffffffffffffffffffffffffffff021916908373ffffffffffffffffffffffffffffffffffffffff1602179055508173ffffffffffffffffffffffffffffffffffffffff168173ffffffffffffffffffffffffffffffffffffffff167f8be0079c531659141344cd1fd0a4f28419497f9722a3daafe3b4186f6b6457e060405160405180910390a35050565b8173ffffffffffffffffffffffffffffffffffffffff168373ffffffffffffffffffffffffffffffffffffffff1603612212576040517f08c379a0000000000000000000000000000000000000000000000000000000008152600401612209906145de565b60405180910390fd5b80600560008573ffffffffffffffffffffffffffffffffffffffff1673ffffffffffffffffffffffffffffffffffffffff16815260200190815260200160002060008473ffffffffffffffffffffffffffffffffffffffff1673ffffffffffffffffffffffffffffffffffffffff16815260200190815260200160002060006101000a81548160ff0219169083151502179055508173ffffffffffffffffffffffffffffffffffffffff168373ffffffffffffffffffffffffffffffffffffffff167f17307eab39ab6107e8899845ad3d59bd9653f200f220920489ca2b5937696c31836040516123039190613033565b60405180910390a3505050565b61231b848484611ce8565b61232784848484612736565b612366576040517f08c379a000000000000000000000000000000000000000000000000000000000815260040161235d90614670565b60405180910390fd5b50505050565b6060600b805461237b90613961565b80601f01602080910402602001604051908101604052809291908181526020018280546123a790613961565b80156123f45780601f106123c9576101008083540402835291602001916123f4565b820191906000526020600020905b8154815290600101906020018083116123d757829003601f168201915b5050505050905090565b60606000600161240d846128bd565b01905060008167ffffffffffffffff81111561242c5761242b6136a1565b5b6040519080825280601f01601f19166020018201604052801561245e5781602001600182028036833780820191505090505b509050600082602001820190505b6001156124c1578080600190039150507f3031323334353637383961626364656600000000000000000000000000000000600a86061a8153600a85816124b5576124b4614067565b5b0494506000850361246c575b819350505050919050565b60007f01ffc9a7000000000000000000000000000000000000000000000000000000007bffffffffffffffffffffffffffffffffffffffffffffffffffffffff1916827bffffffffffffffffffffffffffffffffffffffffffffffffffffffff1916149050919050565b60008073ffffffffffffffffffffffffffffffffffffffff1661255883612023565b73ffffffffffffffffffffffffffffffffffffffff1614159050919050565b61258384848484612a10565b60018111156125c7576040517f08c379a00000000000000000000000000000000000000000000000000000000081526004016125be90614702565b60405180910390fd5b6000829050600073ffffffffffffffffffffffffffffffffffffffff168573ffffffffffffffffffffffffffffffffffffffff160361260e5761260981612a16565b61264d565b8373ffffffffffffffffffffffffffffffffffffffff168573ffffffffffffffffffffffffffffffffffffffff161461264c5761264b8582612a5f565b5b5b600073ffffffffffffffffffffffffffffffffffffffff168473ffffffffffffffffffffffffffffffffffffffff160361268f5761268a81612bcc565b6126ce565b8473ffffffffffffffffffffffffffffffffffffffff168473ffffffffffffffffffffffffffffffffffffffff16146126cd576126cc8482612c9d565b5b5b5050505050565b50505050565b6126e58383612d1c565b6126f26000848484612736565b612731576040517f08c379a000000000000000000000000000000000000000000000000000000000815260040161272890614670565b60405180910390fd5b505050565b60006127578473ffffffffffffffffffffffffffffffffffffffff16612f39565b156128b0578373ffffffffffffffffffffffffffffffffffffffff1663150b7a02612780611b92565b8786866040518563ffffffff1660e01b81526004016127a29493929190614777565b6020604051808303816000875af19250505080156127de57506040513d601f19601f820116820180604052508101906127db91906147d8565b60015b612860573d806000811461280e576040519150601f19603f3d011682016040523d82523d6000602084013e612813565b606091505b506000815103612858576040517f08c379a000000000000000000000000000000000000000000000000000000000815260040161284f90614670565b60405180910390fd5b805181602001fd5b63150b7a0260e01b7bffffffffffffffffffffffffffffffffffffffffffffffffffffffff1916817bffffffffffffffffffffffffffffffffffffffffffffffffffffffff1916149150506128b5565b600190505b949350505050565b600080600090507a184f03e93ff9f4daa797ed6e38ed64bf6a1f010000000000000000831061291b577a184f03e93ff9f4daa797ed6e38ed64bf6a1f010000000000000000838161291157612910614067565b5b0492506040810190505b6d04ee2d6d415b85acef81000000008310612958576d04ee2d6d415b85acef8100000000838161294e5761294d614067565b5b0492506020810190505b662386f26fc10000831061298757662386f26fc10000838161297d5761297c614067565b5b0492506010810190505b6305f5e10083106129b0576305f5e10083816129a6576129a5614067565b5b0492506008810190505b61271083106129d55761271083816129cb576129ca614067565b5b0492506004810190505b606483106129f857606483816129ee576129ed614067565b5b0492506002810190505b600a8310612a07576001810190505b80915050919050565b50505050565b6008805490506009600083815260200190815260200160002081905550600881908060018154018082558091505060019003906000526020600020016000909190919091505550565b60006001612a6c846111f4565b612a769190613c88565b9050600060076000848152602001908152602001600020549050818114612b5b576000600660008673ffffffffffffffffffffffffffffffffffffffff1673ffffffffffffffffffffffffffffffffffffffff168152602001908152602001600020600084815260200190815260200160002054905080600660008773ffffffffffffffffffffffffffffffffffffffff1673ffffffffffffffffffffffffffffffffffffffff168152602001908152602001600020600084815260200190815260200160002081905550816007600083815260200190815260200160002081905550505b6007600084815260200190815260200160002060009055600660008573ffffffffffffffffffffffffffffffffffffffff1673ffffffffffffffffffffffffffffffffffffffff16815260200190815260200160002060008381526020019081526020016000206000905550505050565b60006001600880549050612be09190613c88565b9050600060096000848152602001908152602001600020549050600060088381548110612c1057612c0f614159565b5b906000526020600020015490508060088381548110612c3257612c31614159565b5b906000526020600020018190555081600960008381526020019081526020016000208190555060096000858152602001908152602001600020600090556008805480612c8157612c80614805565b5b6001900381819060005260206000200160009055905550505050565b6000612ca8836111f4565b905081600660008573ffffffffffffffffffffffffffffffffffffffff1673ffffffffffffffffffffffffffffffffffffffff168152602001908152602001600020600083815260200190815260200160002081905550806007600084815260200190815260200160002081905550505050565b600073ffffffffffffffffffffffffffffffffffffffff168273ffffffffffffffffffffffffffffffffffffffff1603612d8b576040517f08c379a0000000000000000000000000000000000000000000000000000000008152600401612d8290614880565b60405180910390fd5b612d9481612536565b15612dd4576040517f08c379a0000000000000000000000000000000000000000000000000000000008152600401612dcb906148ec565b60405180910390fd5b612de2600083836001612577565b612deb81612536565b15612e2b576040517f08c379a0000000000000000000000000000000000000000000000000000000008152600401612e22906148ec565b60405180910390fd5b6001600360008473ffffffffffffffffffffffffffffffffffffffff1673ffffffffffffffffffffffffffffffffffffffff16815260200190815260200160002060008282540192505081905550816002600083815260200190815260200160002060006101000a81548173ffffffffffffffffffffffffffffffffffffffff021916908373ffffffffffffffffffffffffffffffffffffffff160217905550808273ffffffffffffffffffffffffffffffffffffffff16600073ffffffffffffffffffffffffffffffffffffffff167fddf252ad1be2c89b69c2b068fc378daa952ba7f163c4a11628f55a4df523b3ef60405160405180910390a4612f356000838360016126d5565b5050565b6000808273ffffffffffffffffffffffffffffffffffffffff163b119050919050565b604051806060016040528060008152602001600015158152602001600081525090565b6000604051905090565b600080fd5b600080fd5b60007fffffffff0000000000000000000000000000000000000000000000000000000082169050919050565b612fc881612f93565b8114612fd357600080fd5b50565b600081359050612fe581612fbf565b92915050565b60006020828403121561300157613000612f89565b5b600061300f84828501612fd6565b91505092915050565b60008115159050919050565b61302d81613018565b82525050565b60006020820190506130486000830184613024565b92915050565b600081519050919050565b600082825260208201905092915050565b60005b8381101561308857808201518184015260208101905061306d565b60008484015250505050565b6000601f19601f8301169050919050565b60006130b08261304e565b6130ba8185613059565b93506130ca81856020860161306a565b6130d381613094565b840191505092915050565b600060208201905081810360008301526130f881846130a5565b905092915050565b6000819050919050565b61311381613100565b811461311e57600080fd5b50565b6000813590506131308161310a565b92915050565b60006020828403121561314c5761314b612f89565b5b600061315a84828501613121565b91505092915050565b600073ffffffffffffffffffffffffffffffffffffffff82169050919050565b600061318e82613163565b9050919050565b61319e81613183565b82525050565b60006020820190506131b96000830184613195565b92915050565b6131c881613183565b81146131d357600080fd5b50565b6000813590506131e5816131bf565b92915050565b6000806040838503121561320257613201612f89565b5b6000613210858286016131d6565b925050602061322185828601613121565b9150509250929050565b61323481613018565b811461323f57600080fd5b50565b6000813590506132518161322b565b92915050565b6000806000606084860312156132705761326f612f89565b5b600061327e868287016131d6565b935050602061328f86828701613121565b92505060406132a086828701613242565b9150509250925092565b6132b381613100565b82525050565b60006020820190506132ce60008301846132aa565b92915050565b6000806000606084860312156132ed576132ec612f89565b5b60006132fb868287016131d6565b935050602061330c868287016131d6565b925050604061331d86828701613121565b9150509250925092565b600080fd5b600080fd5b600080fd5b60008083601f84011261334c5761334b613327565b5b8235905067ffffffffffffffff8111156133695761336861332c565b5b60208301915083600182028301111561338557613384613331565b5b9250929050565b600080600080606085870312156133a6576133a5612f89565b5b60006133b487828801613121565b94505060206133c587828801613121565b935050604085013567ffffffffffffffff8111156133e6576133e5612f8e565b5b6133f287828801613336565b925092505092959194509250565b60006020828403121561341657613415612f89565b5b6000613424848285016131d6565b91505092915050565b600081519050919050565b600082825260208201905092915050565b6000819050602082019050919050565b61346281613100565b82525050565b60006134748383613459565b60208301905092915050565b6000602082019050919050565b60006134988261342d565b6134a28185613438565b93506134ad83613449565b8060005b838110156134de5781516134c58882613468565b97506134d083613480565b9250506001810190506134b1565b5085935050505092915050565b60006020820190508181036000830152613505818461348d565b905092915050565b600060808201905061352260008301876132aa565b61352f6020830186613024565b61353c60408301856132aa565b6135496060830184613195565b95945050505050565b600081519050919050565b600082825260208201905092915050565b6000819050602082019050919050565b61358781613183565b82525050565b6000613599838361357e565b60208301905092915050565b6000602082019050919050565b60006135bd82613552565b6135c7818561355d565b93506135d28361356e565b8060005b838110156136035781516135ea888261358d565b97506135f5836135a5565b9250506001810190506135d6565b5085935050505092915050565b6000606082019050818103600083015261362a818661348d565b9050818103602083015261363e818561348d565b9050818103604083015261365281846135b2565b9050949350505050565b6000806040838503121561367357613672612f89565b5b6000613681858286016131d6565b925050602061369285828601613242565b9150509250929050565b600080fd5b7f4e487b7100000000000000000000000000000000000000000000000000000000600052604160045260246000fd5b6136d982613094565b810181811067ffffffffffffffff821117156136f8576136f76136a1565b5b80604052505050565b600061370b612f7f565b905061371782826136d0565b919050565b600067ffffffffffffffff821115613737576137366136a1565b5b61374082613094565b9050602081019050919050565b82818337600083830152505050565b600061376f61376a8461371c565b613701565b90508281526020810184848401111561378b5761378a61369c565b5b61379684828561374d565b509392505050565b600082601f8301126137b3576137b2613327565b5b81356137c384826020860161375c565b91505092915050565b600080600080608085870312156137e6576137e5612f89565b5b60006137f4878288016131d6565b9450506020613805878288016131d6565b935050604061381687828801613121565b925050606085013567ffffffffffffffff81111561383757613836612f8e565b5b6138438782880161379e565b91505092959194509250565b6000806040838503121561386657613865612f89565b5b600061387485828601613121565b925050602061388585828601613121565b9150509250929050565b600080604083850312156138a6576138a5612f89565b5b60006138b4858286016131d6565b92505060206138c5858286016131d6565b9150509250929050565b7f4e487b7100000000000000000000000000000000000000000000000000000000600052601160045260246000fd5b600061390982613100565b915061391483613100565b925082820190508082111561392c5761392b6138cf565b5b92915050565b7f4e487b7100000000000000000000000000000000000000000000000000000000600052602260045260246000fd5b6000600282049050600182168061397957607f821691505b60208210810361398c5761398b613932565b5b50919050565b7f4552433732313a20617070726f76616c20746f2063757272656e74206f776e6560008201527f7200000000000000000000000000000000000000000000000000000000000000602082015250565b60006139ee602183613059565b91506139f982613992565b604082019050919050565b60006020820190508181036000830152613a1d816139e1565b9050919050565b7f4552433732313a20617070726f76652063616c6c6572206973206e6f7420746f60008201527f6b656e206f776e6572206f7220617070726f76656420666f7220616c6c000000602082015250565b6000613a80603d83613059565b9150613a8b82613a24565b604082019050919050565b60006020820190508181036000830152613aaf81613a73565b9050919050565b7f43616e6e6f74207075726368617365206f6e652773206f776e20617373657400600082015250565b6000613aec601f83613059565b9150613af782613ab6565b602082019050919050565b60006020820190508181036000830152613b1b81613adf565b9050919050565b7f43616e6e6f74207472616e7366657220746f6b656e2e204e6f7420737566666960008201527f6369656e742066756e6400000000000000000000000000000000000000000000602082015250565b6000613b7e602a83613059565b9150613b8982613b22565b604082019050919050565b60006020820190508181036000830152613bad81613b71565b9050919050565b7f43616e6e6f74207472616e73666572206173736574206173206974206973206e60008201527f6f7420666f722073616c65000000000000000000000000000000000000000000602082015250565b6000613c10602b83613059565b9150613c1b82613bb4565b604082019050919050565b60006020820190508181036000830152613c3f81613c03565b9050919050565b6000613c5182613100565b9150613c5c83613100565b9250828202613c6a81613100565b91508282048414831517613c8157613c806138cf565b5b5092915050565b6000613c9382613100565b9150613c9e83613100565b9250828203905081811115613cb657613cb56138cf565b5b92915050565b7f4552433732313a2063616c6c6572206973206e6f7420746f6b656e206f776e6560008201527f72206f7220617070726f76656400000000000000000000000000000000000000602082015250565b6000613d18602d83613059565b9150613d2382613cbc565b604082019050919050565b60006020820190508181036000830152613d4781613d0b565b9050919050565b600082905092915050565b60008190508160005260206000209050919050565b60006020601f8301049050919050565b600082821b905092915050565b600060088302613dbb7fffffffffffffffffffffffffffffffffffffffffffffffffffffffffffffffff82613d7e565b613dc58683613d7e565b95508019841693508086168417925050509392505050565b6000819050919050565b6000613e02613dfd613df884613100565b613ddd565b613100565b9050919050565b6000819050919050565b613e1c83613de7565b613e30613e2882613e09565b848454613d8b565b825550505050565b600090565b613e45613e38565b613e50818484613e13565b505050565b5b81811015613e7457613e69600082613e3d565b600181019050613e56565b5050565b601f821115613eb957613e8a81613d59565b613e9384613d6e565b81016020851015613ea2578190505b613eb6613eae85613d6e565b830182613e55565b50505b505050565b600082821c905092915050565b6000613edc60001984600802613ebe565b1980831691505092915050565b6000613ef58383613ecb565b9150826002028217905092915050565b613f0f8383613d4e565b67ffffffffffffffff811115613f2857613f276136a1565b5b613f328254613961565b613f3d828285613e78565b6000601f831160018114613f6c5760008415613f5a578287013590505b613f648582613ee9565b865550613fcc565b601f198416613f7a86613d59565b60005b82811015613fa257848901358255600182019150602085019450602081019050613f7d565b86831015613fbf5784890135613fbb601f891682613ecb565b8355505b6001600288020188555050505b50505050505050565b7f455243373231456e756d657261626c653a206f776e657220696e646578206f7560008201527f74206f6620626f756e6473000000000000000000000000000000000000000000602082015250565b6000614031602b83613059565b915061403c82613fd5565b604082019050919050565b6000602082019050818103600083015261406081614024565b9050919050565b7f4e487b7100000000000000000000000000000000000000000000000000000000600052601260045260246000fd5b60006140a182613100565b91506140ac83613100565b9250826140bc576140bb614067565b5b828204905092915050565b7f455243373231456e756d657261626c653a20676c6f62616c20696e646578206f60008201527f7574206f6620626f756e64730000000000000000000000000000000000000000602082015250565b6000614123602c83613059565b915061412e826140c7565b604082019050919050565b6000602082019050818103600083015261415281614116565b9050919050565b7f4e487b7100000000000000000000000000000000000000000000000000000000600052603260045260246000fd5b600061419382613100565b91507fffffffffffffffffffffffffffffffffffffffffffffffffffffffffffffffff82036141c5576141c46138cf565b5b600182019050919050565b7f4552433732313a20696e76616c696420746f6b656e2049440000000000000000600082015250565b6000614206601883613059565b9150614211826141d0565b602082019050919050565b60006020820190508181036000830152614235816141f9565b9050919050565b7f4552433732313a2061646472657373207a65726f206973206e6f74206120766160008201527f6c6964206f776e65720000000000000000000000000000000000000000000000602082015250565b6000614298602983613059565b91506142a38261423c565b604082019050919050565b600060208201905081810360008301526142c78161428b565b9050919050565b6000815190506142dd816131bf565b92915050565b6000602082840312156142f9576142f8612f89565b5b6000614307848285016142ce565b91505092915050565b600081905092915050565b60006143268261304e565b6143308185614310565b935061434081856020860161306a565b80840191505092915050565b6000614358828561431b565b9150614364828461431b565b91508190509392505050565b7f4f776e61626c653a206e6577206f776e657220697320746865207a65726f206160008201527f6464726573730000000000000000000000000000000000000000000000000000602082015250565b60006143cc602683613059565b91506143d782614370565b604082019050919050565b600060208201905081810360008301526143fb816143bf565b9050919050565b7f4552433732313a207472616e736665722066726f6d20696e636f72726563742060008201527f6f776e6572000000000000000000000000000000000000000000000000000000602082015250565b600061445e602583613059565b915061446982614402565b604082019050919050565b6000602082019050818103600083015261448d81614451565b9050919050565b7f4552433732313a207472616e7366657220746f20746865207a65726f2061646460008201527f7265737300000000000000000000000000000000000000000000000000000000602082015250565b60006144f0602483613059565b91506144fb82614494565b604082019050919050565b6000602082019050818103600083015261451f816144e3565b9050919050565b7f4f776e61626c653a2063616c6c6572206973206e6f7420746865206f776e6572600082015250565b600061455c602083613059565b915061456782614526565b602082019050919050565b6000602082019050818103600083015261458b8161454f565b9050919050565b7f4552433732313a20617070726f766520746f2063616c6c657200000000000000600082015250565b60006145c8601983613059565b91506145d382614592565b602082019050919050565b600060208201905081810360008301526145f7816145bb565b9050919050565b7f4552433732313a207472616e7366657220746f206e6f6e20455243373231526560008201527f63656976657220696d706c656d656e7465720000000000000000000000000000602082015250565b600061465a603283613059565b9150614665826145fe565b604082019050919050565b600060208201905081810360008301526146898161464d565b9050919050565b7f455243373231456e756d657261626c653a20636f6e736563757469766520747260008201527f616e7366657273206e6f7420737570706f727465640000000000000000000000602082015250565b60006146ec603583613059565b91506146f782614690565b604082019050919050565b6000602082019050818103600083015261471b816146df565b9050919050565b600081519050919050565b600082825260208201905092915050565b600061474982614722565b614753818561472d565b935061476381856020860161306a565b61476c81613094565b840191505092915050565b600060808201905061478c6000830187613195565b6147996020830186613195565b6147a660408301856132aa565b81810360608301526147b8818461473e565b905095945050505050565b6000815190506147d281612fbf565b92915050565b6000602082840312156147ee576147ed612f89565b5b60006147fc848285016147c3565b91505092915050565b7f4e487b7100000000000000000000000000000000000000000000000000000000600052603160045260246000fd5b7f4552433732313a206d696e7420746f20746865207a65726f2061646472657373600082015250565b600061486a602083613059565b915061487582614834565b602082019050919050565b600060208201905081810360008301526148998161485d565b9050919050565b7f4552433732313a20746f6b656e20616c7265616479206d696e74656400000000600082015250565b60006148d6601c83613059565b91506148e1826148a0565b602082019050919050565b60006020820190508181036000830152614905816148c9565b905091905056fea2646970667358221220c088eabbc59fe141efc7cd4024994eabd258110381fc3bb88cb0ec5a8ac6231264736f6c63430008130033",
  "immutableReferences": {},
  "source": "// SPDX-License-Identifier: MIT\npragma solidity ^0.8.0;\n\nimport \"@openzeppelin/contracts/token/ERC721/extensions/ERC721Enumerable.sol\";\nimport \"@openzeppelin/contracts/utils/Counters.sol\";\nimport \"@openzeppelin/contracts/access/Ownable.sol\";\nimport \"@openzeppelin/contracts/utils/math/SafeMath.sol\";\n\ncontract AssetToken is ERC721Enumerable,Ownable{\n    using Counters for Counters.Counter;\n    using SafeMath for uint256;\n\n    string private _baseuri;\n    Counters.Counter private _lasttokenID;\n    mapping(address=>uint256) _EscrowMoney; //This will hold account of everyone who has put the money in escrow.\n    mapping(uint256=>Asset) _AssetIdToAssetMap; //map asset sales data with asset id\n    uint256[] public registeredAssets; //array to keep track of all registered assets. Each element of this array contains assetid passed at the time of registration\n    mapping(uint256=>uint256) _TokenToAssetMap; //for each token holds the asset id it points to\n    \n    constructor() ERC721(\"ShareToWin\",\"STW\"){}\n\n    struct Asset{\n        uint256 currentSalePrice;\n        bool isAvailableForSale;\n        uint256 AssetTokenID;\n    }\n\n    //This function will mint a new NFT. For each AssetID that is passed from the rest api, there is a NFT, represented by the token id,\n    //that is associated. Will this generate new contract code.  \n    function registerAsset(uint256 assetID,uint256 salePrice,string calldata _uri) public returns(uint256 newTokenID) {\n        _lasttokenID.increment();\n        newTokenID=_lasttokenID.current();\n\n        _safeMint(msg.sender, newTokenID);\n        _baseuri=_uri;\n        \n        Asset memory newAsset;\n        newAsset.currentSalePrice=salePrice;\n        newAsset.isAvailableForSale=true;\n        newAsset.AssetTokenID=newTokenID;\n        \n        _AssetIdToAssetMap[assetID]=newAsset;\n        registeredAssets.push(assetID);\n        _TokenToAssetMap[newTokenID]=assetID;\n\n        emit AssetRegistered(newTokenID);\n        return newTokenID;\n    }\n    //This function is part of the smart contract for convenience. This information can also be queried from the dynamoDb. \n    function getAllRegisteredAsset() view public returns(uint256[] memory r){\n        return registeredAssets;\n    }\n    \n    //For a given asset id, it will return asset last/current sale price,boolean to indicate if it is on sale, NFT id and the address of the current owner\n    function getAssetByID(uint256 assetID) view public returns(uint256,bool,uint256,address){\n        return (_AssetIdToAssetMap[assetID].currentSalePrice,_AssetIdToAssetMap[assetID].isAvailableForSale,_AssetIdToAssetMap[assetID].AssetTokenID,ownerOf(_AssetIdToAssetMap[assetID].AssetTokenID));\n    }\n\n    // Return the count of NFT token whose owner has indicated that they are willing to exchange these NFT.\n    function getAssetOnSaleCount() view public returns(uint256){\n        uint totalAssetonMarket;\n        for(uint i=0;i<registeredAssets.length;i++){\n            if(_AssetIdToAssetMap[registeredAssets[i]].isAvailableForSale==true){\n                totalAssetonMarket++;\n            }\n        }\n        return totalAssetonMarket;\n    }\n    //this function return all asset id ownerd by this account\n    function getAssetsOwnedByAccount(address tokenOwnerAddress) view public returns(uint256[] memory){\n        uint totalToken=balanceOf(tokenOwnerAddress);\n        uint256[] memory assetIDs=new uint256[](totalToken);\n\n        for(uint i=0;i<totalToken;i++){\n            uint256 accountNftTokenId=tokenOfOwnerByIndex(tokenOwnerAddress, i);\n            assetIDs[i]=_TokenToAssetMap[accountNftTokenId];\n        }\n        return assetIDs;\n    }\n\n    //this function will return all the asset that are on sale and the sale price at which they are in the market\n    function getAllAssetOnSale() view public returns(uint256[] memory,uint256[] memory,address[] memory){\n        uint saleCounter=getAssetOnSaleCount();\n        uint256[] memory assetIDs=new uint256[](saleCounter);\n        uint256[] memory assetPrice=new uint256[](saleCounter);\n        address[] memory assetOwnerAddress=new address[](saleCounter);\n        uint counter=0;\n        for(uint i=0;i<registeredAssets.length;i++){      \n            if(_AssetIdToAssetMap[registeredAssets[i]].isAvailableForSale==true){\n                assetIDs[counter]=registeredAssets[i];\n                assetPrice[counter]=_AssetIdToAssetMap[registeredAssets[i]].currentSalePrice;\n                assetOwnerAddress[counter]=this.ownerOf(_AssetIdToAssetMap[registeredAssets[i]].AssetTokenID);\n                counter++;\n            }\n        }\n        return (assetIDs,assetPrice,assetOwnerAddress);\n    }\n\n    //return the escrow amount in Ether that the contract holds for the given address\n    function getAccountEscrowMoney(address escrowAccount) view public returns(uint256 moneyInEscrow){\n        return _EscrowMoney[escrowAccount]/1000000000000000000;\n    }\n\n    //list the NFT to be available for sale\n    function putAssetOnMarket(uint256 salePrice,uint256 assetID) public{\n        _AssetIdToAssetMap[assetID].currentSalePrice=salePrice;\n        _AssetIdToAssetMap[assetID].isAvailableForSale=true;\n    }\n\n    //transfer the NFT from one address to another and adjust the escrow balance\n    function transferAsset(address _to, uint256 assetID,bool withEscrow) public {\n        uint256 assetTokenID=_AssetIdToAssetMap[assetID].AssetTokenID;\n        uint256 ethSalesAmount=_AssetIdToAssetMap[assetID].currentSalePrice;\n        address currentOwner=ownerOf(assetTokenID);\n\n        //owner can't transfer his own asset\n        if(_to==currentOwner) {\n            revert(\"Cannot purchase one's own asset\");\n        }\n        require(ethSalesAmount<=_EscrowMoney[_to],\"Cannot transfer token. Not sufficient fund\");\n\n        //cannot transfer asset if it is not for sale\n        require(_AssetIdToAssetMap[assetID].isAvailableForSale==true,\"Cannot transfer asset as it is not for sale\");\n\n        //first transfer the token and then send ether to seller and and adjust the escrow balance\n        safeTransferFrom(currentOwner, _to, assetTokenID);\n        if(withEscrow==true){\n            payable(currentOwner).transfer(ethSalesAmount * 1000000000000000000);\n            _EscrowMoney[_to] = _EscrowMoney[_to]-(ethSalesAmount * 1000000000000000000);\n        }\n        //approve(this.owner(), assetTokenID);\n        \n        //remove the asset from market\n        _AssetIdToAssetMap[assetID].isAvailableForSale=false;\n    }\n    //this function should return the metadata base uri\n    function _baseURI() internal view virtual override returns (string memory) {\n        return _baseuri;\n    }\n\n    receive() external payable\n    {\n        uint256 amount = msg.value;\n        _EscrowMoney[msg.sender] = _EscrowMoney[msg.sender].add(amount);\n    }\n\n    event AssetRegistered(uint256 tokenId);\n\n    //event AssetTransfered(address from, address to, uint256 tokenid);\n}",
  "sourcePath": "/home/ec2-user/source/EthereumDappCICD/SmartContractCode/contracts/AssetToken.sol",
  "compiler": {
    "name": "solc",
    "version": "0.8.19+commit.7dd6d404.Emscripten.clang"
  },
  "schemaVersion": "3.4.13",
  "updatedAt": "2023-05-23T19:28:19.402Z",
  "networkType": "ethereum",
  "devdoc": {
    "events": {
      "Approval(address,address,uint256)": {
        "details": "Emitted when `owner` enables `approved` to manage the `tokenId` token."
      },
      "ApprovalForAll(address,address,bool)": {
        "details": "Emitted when `owner` enables or disables (`approved`) `operator` to manage all of its assets."
      },
      "Transfer(address,address,uint256)": {
        "details": "Emitted when `tokenId` token is transferred from `from` to `to`."
      }
    },
    "kind": "dev",
    "methods": {
      "approve(address,uint256)": {
        "details": "See {IERC721-approve}."
      },
      "balanceOf(address)": {
        "details": "See {IERC721-balanceOf}."
      },
      "getApproved(uint256)": {
        "details": "See {IERC721-getApproved}."
      },
      "isApprovedForAll(address,address)": {
        "details": "See {IERC721-isApprovedForAll}."
      },
      "name()": {
        "details": "See {IERC721Metadata-name}."
      },
      "owner()": {
        "details": "Returns the address of the current owner."
      },
      "ownerOf(uint256)": {
        "details": "See {IERC721-ownerOf}."
      },
      "renounceOwnership()": {
        "details": "Leaves the contract without owner. It will not be possible to call `onlyOwner` functions anymore. Can only be called by the current owner. NOTE: Renouncing ownership will leave the contract without an owner, thereby removing any functionality that is only available to the owner."
      },
      "safeTransferFrom(address,address,uint256)": {
        "details": "See {IERC721-safeTransferFrom}."
      },
      "safeTransferFrom(address,address,uint256,bytes)": {
        "details": "See {IERC721-safeTransferFrom}."
      },
      "setApprovalForAll(address,bool)": {
        "details": "See {IERC721-setApprovalForAll}."
      },
      "supportsInterface(bytes4)": {
        "details": "See {IERC165-supportsInterface}."
      },
      "symbol()": {
        "details": "See {IERC721Metadata-symbol}."
      },
      "tokenByIndex(uint256)": {
        "details": "See {IERC721Enumerable-tokenByIndex}."
      },
      "tokenOfOwnerByIndex(address,uint256)": {
        "details": "See {IERC721Enumerable-tokenOfOwnerByIndex}."
      },
      "tokenURI(uint256)": {
        "details": "See {IERC721Metadata-tokenURI}."
      },
      "totalSupply()": {
        "details": "See {IERC721Enumerable-totalSupply}."
      },
      "transferFrom(address,address,uint256)": {
        "details": "See {IERC721-transferFrom}."
      },
      "transferOwnership(address)": {
        "details": "Transfers ownership of the contract to a new account (`newOwner`). Can only be called by the current owner."
      }
    },
    "version": 1
  },
  "userdoc": {
    "kind": "user",
    "methods": {},
    "version": 1
  }
}